{
  "contractName": "Dlogs",
  "abi": [
    {
      "inputs": [
        {
          "name": "_addr",
          "type": "address"
        }
      ],
      "payable": false,
      "stateMutability": "nonpayable",
      "type": "constructor"
    },
    {
      "payable": true,
      "stateMutability": "payable",
      "type": "fallback"
    },
    {
      "anonymous": false,
      "inputs": [
        {
          "indexed": false,
          "name": "addr",
          "type": "address"
        },
        {
          "indexed": false,
          "name": "blogHash",
          "type": "string"
        }
      ],
      "name": "AddedBlog",
      "type": "event"
    },
    {
      "anonymous": false,
      "inputs": [
        {
          "indexed": false,
          "name": "addr",
          "type": "address"
        },
        {
          "indexed": false,
          "name": "blogHash",
          "type": "string"
        }
      ],
      "name": "DeletedBlog",
      "type": "event"
    },
    {
      "anonymous": false,
      "inputs": [
        {
          "indexed": false,
          "name": "reader",
          "type": "address"
        },
        {
          "indexed": false,
          "name": "blogger",
          "type": "address"
        },
        {
          "indexed": false,
          "name": "blogHash",
          "type": "string"
        }
      ],
      "name": "LikedBlog",
      "type": "event"
    },
    {
      "anonymous": false,
      "inputs": [
        {
          "indexed": false,
          "name": "reader",
          "type": "address"
        },
        {
          "indexed": false,
          "name": "blogger",
          "type": "address"
        },
        {
          "indexed": false,
          "name": "blogHash",
          "type": "string"
        }
      ],
      "name": "DislikedBlog",
      "type": "event"
    },
    {
      "constant": true,
      "inputs": [
        {
          "name": "addr",
          "type": "address"
        }
      ],
      "name": "isRegistered",
      "outputs": [
        {
          "name": "",
          "type": "bool"
        }
      ],
      "payable": false,
      "stateMutability": "view",
      "type": "function"
    },
    {
      "constant": true,
      "inputs": [
        {
          "name": "addr",
          "type": "address"
        }
      ],
      "name": "getRegisterAddress",
      "outputs": [
        {
          "name": "",
          "type": "address"
        }
      ],
      "payable": false,
      "stateMutability": "view",
      "type": "function"
    },
    {
      "constant": false,
      "inputs": [
        {
          "name": "blogHash",
          "type": "string"
        }
      ],
      "name": "addBlog",
      "outputs": [
        {
          "name": "",
          "type": "bool"
        }
      ],
      "payable": true,
      "stateMutability": "payable",
      "type": "function"
    },
    {
      "constant": false,
      "inputs": [
        {
          "name": "blogHash",
          "type": "string"
        }
      ],
      "name": "deleteBlog",
      "outputs": [
        {
          "name": "",
          "type": "bool"
        }
      ],
      "payable": false,
      "stateMutability": "nonpayable",
      "type": "function"
    },
    {
      "constant": false,
      "inputs": [
        {
          "name": "blogOwner",
          "type": "address"
        },
        {
          "name": "blogHash",
          "type": "string"
        }
      ],
      "name": "likeBlog",
      "outputs": [
        {
          "name": "",
          "type": "bool"
        }
      ],
      "payable": true,
      "stateMutability": "payable",
      "type": "function"
    },
    {
      "constant": false,
      "inputs": [
        {
          "name": "blogOwner",
          "type": "address"
        },
        {
          "name": "blogHash",
          "type": "string"
        }
      ],
      "name": "dislikeBlog",
      "outputs": [
        {
          "name": "",
          "type": "bool"
        }
      ],
      "payable": false,
      "stateMutability": "nonpayable",
      "type": "function"
    },
    {
      "constant": false,
      "inputs": [],
      "name": "withdrawETH",
      "outputs": [
        {
          "name": "",
          "type": "bool"
        }
      ],
      "payable": false,
      "stateMutability": "nonpayable",
      "type": "function"
    },
    {
      "constant": true,
      "inputs": [],
      "name": "getBalanceOfTKG",
      "outputs": [
        {
          "name": "",
          "type": "uint256"
        }
      ],
      "payable": false,
      "stateMutability": "view",
      "type": "function"
    },
    {
      "constant": true,
      "inputs": [],
      "name": "getAvailableETHForWithdraw",
      "outputs": [
        {
          "name": "",
          "type": "uint256"
        }
      ],
      "payable": false,
      "stateMutability": "view",
      "type": "function"
    },
    {
      "constant": false,
      "inputs": [],
      "name": "deposit",
      "outputs": [],
      "payable": true,
      "stateMutability": "payable",
      "type": "function"
    },
    {
      "constant": true,
      "inputs": [],
      "name": "getBalance",
      "outputs": [
        {
          "name": "",
          "type": "uint256"
        }
      ],
      "payable": false,
      "stateMutability": "view",
      "type": "function"
    },
    {
      "constant": true,
      "inputs": [
        {
          "name": "_addr",
          "type": "address"
        }
      ],
      "name": "getBlogs",
      "outputs": [
        {
          "name": "",
          "type": "uint256"
        }
      ],
      "payable": false,
      "stateMutability": "view",
      "type": "function"
    }
  ],
  "bytecode": "0x60806040526611c37937e0800060025566038d7ea4c6800060035534801561002657600080fd5b50604051602080611d8c8339810180604052810190808051906020019092919050505080600560006101000a81548173ffffffffffffffffffffffffffffffffffffffff021916908373ffffffffffffffffffffffffffffffffffffffff16021790555050611cf28061009a6000396000f3006080604052600436106100ba576000357c0100000000000000000000000000000000000000000000000000000000900463ffffffff1680630ba1e964146100bf57806312065fe0146100ea5780637797c50114610115578063974fddd6146101405780639adb922f146101a6578063a3ac8176146101fd578063c3c5a54714610250578063d0e30db0146102ab578063d22f6f79146102b5578063d31683af146102fb578063d3df14421461036e578063e086e5ec146103f1575b600080fd5b3480156100cb57600080fd5b506100d4610420565b6040518082815260200191505060405180910390f35b3480156100f657600080fd5b506100ff610466565b6040518082815260200191505060405180910390f35b34801561012157600080fd5b5061012a610485565b6040518082815260200191505060405180910390f35b61018c600480360381019080803573ffffffffffffffffffffffffffffffffffffffff16906020019092919080359060200190820180359060200191909192939192939050505061050c565b604051808215151515815260200191505060405180910390f35b3480156101b257600080fd5b506101e7600480360381019080803573ffffffffffffffffffffffffffffffffffffffff16906020019092919050505061077f565b6040518082815260200191505060405180910390f35b34801561020957600080fd5b506102366004803603810190808035906020019082018035906020019190919293919293905050506107d0565b604051808215151515815260200191505060405180910390f35b34801561025c57600080fd5b50610291600480360381019080803573ffffffffffffffffffffffffffffffffffffffff1690602001909291905050506110ed565b604051808215151515815260200191505060405180910390f35b6102b36111ee565b005b6102e16004803603810190808035906020019082018035906020019190919293919293905050506111f0565b604051808215151515815260200191505060405180910390f35b34801561030757600080fd5b50610354600480360381019080803573ffffffffffffffffffffffffffffffffffffffff169060200190929190803590602001908201803590602001919091929391929390505050611764565b604051808215151515815260200191505060405180910390f35b34801561037a57600080fd5b506103af600480360381019080803573ffffffffffffffffffffffffffffffffffffffff1690602001909291905050506118e6565b604051808273ffffffffffffffffffffffffffffffffffffffff1673ffffffffffffffffffffffffffffffffffffffff16815260200191505060405180910390f35b3480156103fd57600080fd5b50610406611912565b604051808215151515815260200191505060405180910390f35b60008060003373ffffffffffffffffffffffffffffffffffffffff1673ffffffffffffffffffffffffffffffffffffffff16815260200190815260200160002054905090565b60003073ffffffffffffffffffffffffffffffffffffffff1631905090565b60006105076004546104f9600160003373ffffffffffffffffffffffffffffffffffffffff1673ffffffffffffffffffffffffffffffffffffffff168152602001908152602001600020600201543073ffffffffffffffffffffffffffffffffffffffff1631611ac990919063ffffffff16565b611b0790919063ffffffff16565b905090565b60008383838080601f0160208091040260200160405190810160405280939291908181526020018383808284378201915050505050506000600160008473ffffffffffffffffffffffffffffffffffffffff1673ffffffffffffffffffffffffffffffffffffffff168152602001908152602001600020600301826040518082805190602001908083835b6020831015156105bc5780518252602082019150602081019050602083039250610597565b6001836020036101000a038019825116818451168082178552505050505050905001915050908152602001604051809103902054141515156105fd57600080fd5b6003543411151561060d57600080fd5b60018060003373ffffffffffffffffffffffffffffffffffffffff1673ffffffffffffffffffffffffffffffffffffffff16815260200190815260200160002060050186866040518083838082843782019150509250505090815260200160405180910390205401600160003373ffffffffffffffffffffffffffffffffffffffff1673ffffffffffffffffffffffffffffffffffffffff16815260200190815260200160002060050186866040518083838082843782019150509250505090815260200160405180910390208190555061073060016000803373ffffffffffffffffffffffffffffffffffffffff1673ffffffffffffffffffffffffffffffffffffffff16815260200190815260200160002054611b3190919063ffffffff16565b6000803373ffffffffffffffffffffffffffffffffffffffff1673ffffffffffffffffffffffffffffffffffffffff168152602001908152602001600020819055506001925050509392505050565b600080600160008473ffffffffffffffffffffffffffffffffffffffff1673ffffffffffffffffffffffffffffffffffffffff16815260200190815260200160002090508060010154915050919050565b60008060003385858080601f0160208091040260200160405190810160405280939291908181526020018383808284378201915050505050506000600160008473ffffffffffffffffffffffffffffffffffffffff1673ffffffffffffffffffffffffffffffffffffffff168152602001908152602001600020600301826040518082805190602001908083835b602083101515610883578051825260208201915060208101905060208303925061085e565b6001836020036101000a038019825116818451168082178552505050505050905001915050908152602001604051809103902054141515156108c457600080fd5b600160003373ffffffffffffffffffffffffffffffffffffffff1673ffffffffffffffffffffffffffffffffffffffff1681526020019081526020016000206003019350600160003373ffffffffffffffffffffffffffffffffffffffff1673ffffffffffffffffffffffffffffffffffffffff168152602001908152602001600020600401925060018060003373ffffffffffffffffffffffffffffffffffffffff1673ffffffffffffffffffffffffffffffffffffffff168152602001908152602001600020600101541415610ac857600160003373ffffffffffffffffffffffffffffffffffffffff1673ffffffffffffffffffffffffffffffffffffffff1681526020019081526020016000206004016000600160003373ffffffffffffffffffffffffffffffffffffffff1673ffffffffffffffffffffffffffffffffffffffff16815260200190815260200160002060030189896040518083838082843782019150509250505090815260200160405180910390205481526020019081526020016000206000610a5a9190611b52565b600160003373ffffffffffffffffffffffffffffffffffffffff1673ffffffffffffffffffffffffffffffffffffffff168152602001908152602001600020600301878760405180838380828437820191505092505050908152602001604051809103902060009055610fcf565b600160003373ffffffffffffffffffffffffffffffffffffffff1673ffffffffffffffffffffffffffffffffffffffff1681526020019081526020016000206004016000600160003373ffffffffffffffffffffffffffffffffffffffff1673ffffffffffffffffffffffffffffffffffffffff168152602001908152602001600020600101548152602001908152602001600020600160003373ffffffffffffffffffffffffffffffffffffffff1673ffffffffffffffffffffffffffffffffffffffff1681526020019081526020016000206004016000600160003373ffffffffffffffffffffffffffffffffffffffff1673ffffffffffffffffffffffffffffffffffffffff1681526020019081526020016000206003018a8a6040518083838082843782019150509250505090815260200160405180910390205481526020019081526020016000209080546001816001161561010002031660029004610c34929190611b9a565b50600160003373ffffffffffffffffffffffffffffffffffffffff1673ffffffffffffffffffffffffffffffffffffffff168152602001908152602001600020600301878760405180838380828437820191505092505050908152602001604051809103902054600160003373ffffffffffffffffffffffffffffffffffffffff1673ffffffffffffffffffffffffffffffffffffffff168152602001908152602001600020600301600160003373ffffffffffffffffffffffffffffffffffffffff1673ffffffffffffffffffffffffffffffffffffffff1681526020019081526020016000206004016000600160003373ffffffffffffffffffffffffffffffffffffffff1673ffffffffffffffffffffffffffffffffffffffff1681526020019081526020016000206001015481526020019081526020016000206040518082805460018160011615610100020316600290048015610dcd5780601f10610dab576101008083540402835291820191610dcd565b820191906000526020600020905b815481529060010190602001808311610db9575b5050915050908152602001604051809103902081905550600160003373ffffffffffffffffffffffffffffffffffffffff1673ffffffffffffffffffffffffffffffffffffffff168152602001908152602001600020600301600160003373ffffffffffffffffffffffffffffffffffffffff1673ffffffffffffffffffffffffffffffffffffffff1681526020019081526020016000206004016000600160003373ffffffffffffffffffffffffffffffffffffffff1673ffffffffffffffffffffffffffffffffffffffff1681526020019081526020016000206001015481526020019081526020016000206040518082805460018160011615610100020316600290048015610f165780601f10610ef4576101008083540402835291820191610f16565b820191906000526020600020905b815481529060010190602001808311610f02575b5050915050908152602001604051809103902060009055600160003373ffffffffffffffffffffffffffffffffffffffff1673ffffffffffffffffffffffffffffffffffffffff1681526020019081526020016000206004016000600160003373ffffffffffffffffffffffffffffffffffffffff1673ffffffffffffffffffffffffffffffffffffffff1681526020019081526020016000206001015481526020019081526020016000206000610fce9190611b52565b5b60018060003373ffffffffffffffffffffffffffffffffffffffff1673ffffffffffffffffffffffffffffffffffffffff1681526020019081526020016000206001015403600160003373ffffffffffffffffffffffffffffffffffffffff1673ffffffffffffffffffffffffffffffffffffffff168152602001908152602001600020600101819055507f38016f65622f701d768868f108a54397fcca591b884390f00fb52994dbb91547338888604051808473ffffffffffffffffffffffffffffffffffffffff1673ffffffffffffffffffffffffffffffffffffffff168152602001806020018281038252848482818152602001925080828437820191505094505050505060405180910390a1600194505050505092915050565b6000600560009054906101000a900473ffffffffffffffffffffffffffffffffffffffff1673ffffffffffffffffffffffffffffffffffffffff1663c3c5a547836040518263ffffffff167c0100000000000000000000000000000000000000000000000000000000028152600401808273ffffffffffffffffffffffffffffffffffffffff1673ffffffffffffffffffffffffffffffffffffffff168152602001915050602060405180830381600087803b1580156111ac57600080fd5b505af11580156111c0573d6000803e3d6000fd5b505050506040513d60208110156111d657600080fd5b81019080805190602001909291905050509050919050565b565b60008033600560009054906101000a900473ffffffffffffffffffffffffffffffffffffffff1673ffffffffffffffffffffffffffffffffffffffff1663c3c5a547826040518263ffffffff167c0100000000000000000000000000000000000000000000000000000000028152600401808273ffffffffffffffffffffffffffffffffffffffff1673ffffffffffffffffffffffffffffffffffffffff168152602001915050602060405180830381600087803b1580156112b157600080fd5b505af11580156112c5573d6000803e3d6000fd5b505050506040513d60208110156112db57600080fd5b810190808051906020019092919050505015156112f757600080fd5b6002543411151561130757600080fd5b6000600160003373ffffffffffffffffffffffffffffffffffffffff1673ffffffffffffffffffffffffffffffffffffffff16815260200190815260200160002060000160009054906101000a900473ffffffffffffffffffffffffffffffffffffffff1673ffffffffffffffffffffffffffffffffffffffff1614151561146257600191506060604051908101604052803373ffffffffffffffffffffffffffffffffffffffff1681526020018381526020016000815250600160003373ffffffffffffffffffffffffffffffffffffffff1673ffffffffffffffffffffffffffffffffffffffff16815260200190815260200160002060008201518160000160006101000a81548173ffffffffffffffffffffffffffffffffffffffff021916908373ffffffffffffffffffffffffffffffffffffffff160217905550602082015181600101556040820151816002015590505061163f565b60018060003373ffffffffffffffffffffffffffffffffffffffff1673ffffffffffffffffffffffffffffffffffffffff1681526020019081526020016000206001015401600160003373ffffffffffffffffffffffffffffffffffffffff1673ffffffffffffffffffffffffffffffffffffffff16815260200190815260200160002060010181905550600160003373ffffffffffffffffffffffffffffffffffffffff1673ffffffffffffffffffffffffffffffffffffffff16815260200190815260200160002060010154600160003373ffffffffffffffffffffffffffffffffffffffff1673ffffffffffffffffffffffffffffffffffffffff1681526020019081526020016000206003018686604051808383808284378201915050925050509081526020016040518091039020819055508484600160003373ffffffffffffffffffffffffffffffffffffffff1673ffffffffffffffffffffffffffffffffffffffff1681526020019081526020016000206004016000600160003373ffffffffffffffffffffffffffffffffffffffff1673ffffffffffffffffffffffffffffffffffffffff168152602001908152602001600020600101548152602001908152602001600020919061163d929190611c21565b505b61169160056000803373ffffffffffffffffffffffffffffffffffffffff1673ffffffffffffffffffffffffffffffffffffffff16815260200190815260200160002054611b3190919063ffffffff16565b6000803373ffffffffffffffffffffffffffffffffffffffff1673ffffffffffffffffffffffffffffffffffffffff168152602001908152602001600020819055507fdca9b62af5f00fa018e000b450f43751580fc0d8b2697339559e43a11d40d320338686604051808473ffffffffffffffffffffffffffffffffffffffff1673ffffffffffffffffffffffffffffffffffffffff168152602001806020018281038252848482818152602001925080828437820191505094505050505060405180910390a160019250505092915050565b60006003543411151561177657600080fd5b60018060003373ffffffffffffffffffffffffffffffffffffffff1673ffffffffffffffffffffffffffffffffffffffff16815260200190815260200160002060060184846040518083838082843782019150509250505090815260200160405180910390205401600160003373ffffffffffffffffffffffffffffffffffffffff1673ffffffffffffffffffffffffffffffffffffffff16815260200190815260200160002060060184846040518083838082843782019150509250505090815260200160405180910390208190555061189960016000803373ffffffffffffffffffffffffffffffffffffffff1673ffffffffffffffffffffffffffffffffffffffff16815260200190815260200160002054611b3190919063ffffffff16565b6000803373ffffffffffffffffffffffffffffffffffffffff1673ffffffffffffffffffffffffffffffffffffffff16815260200190815260200160002081905550600190509392505050565b6000600560009054906101000a900473ffffffffffffffffffffffffffffffffffffffff169050919050565b6000336000600160008373ffffffffffffffffffffffffffffffffffffffff1673ffffffffffffffffffffffffffffffffffffffff1681526020019081526020016000206002015411151561196657600080fd5b3373ffffffffffffffffffffffffffffffffffffffff166108fc611a006004546119f2600160003373ffffffffffffffffffffffffffffffffffffffff1673ffffffffffffffffffffffffffffffffffffffff168152602001908152602001600020600201543073ffffffffffffffffffffffffffffffffffffffff1631611ac990919063ffffffff16565b611b0790919063ffffffff16565b9081150290604051600060405180830381858888f19350505050158015611a2b573d6000803e3d6000fd5b50600160003373ffffffffffffffffffffffffffffffffffffffff1673ffffffffffffffffffffffffffffffffffffffff16815260200190815260200160002060020154600454036004819055506000600160003373ffffffffffffffffffffffffffffffffffffffff1673ffffffffffffffffffffffffffffffffffffffff16815260200190815260200160002060020181905550600191505090565b6000806000841415611ade5760009150611b00565b8284029050828482811515611aef57fe5b04141515611afc57600080fd5b8091505b5092915050565b600080600083111515611b1957600080fd5b8284811515611b2457fe5b0490508091505092915050565b6000808284019050838110151515611b4857600080fd5b8091505092915050565b50805460018160011615610100020316600290046000825580601f10611b785750611b97565b601f016020900490600052602060002090810190611b969190611ca1565b5b50565b828054600181600116156101000203166002900490600052602060002090601f016020900481019282601f10611bd35780548555611c10565b82800160010185558215611c1057600052602060002091601f016020900482015b82811115611c0f578254825591600101919060010190611bf4565b5b509050611c1d9190611ca1565b5090565b828054600181600116156101000203166002900490600052602060002090601f016020900481019282601f10611c6257803560ff1916838001178555611c90565b82800160010185558215611c90579182015b82811115611c8f578235825591602001919060010190611c74565b5b509050611c9d9190611ca1565b5090565b611cc391905b80821115611cbf576000816000905550600101611ca7565b5090565b905600a165627a7a72305820a29c0a980cba22a1776b4ece07b393c2b9914f0275a7e5cfe9109110887060e80029",
  "source": "pragma solidity ^0.4.24;\n\nimport \"./SafeMath.sol\";\n// import \"./Register.sol\";\n// @title Main Contract for Dlogs\n\ncontract Register{\n    function isRegistered(address addr) public view returns (bool);\n}\n\ncontract Dlogs{\n    using SafeMath for uint256;\n    struct Blogger {\n        address addr;\n        uint blogCount;\n        uint currentAvailableLikes;\n        mapping(string => uint) blogToIndex;\n        mapping(uint => string) blogList;\n        mapping(string => uint) likes;\n        mapping(string => uint) dislikes;\n    }\n\n    mapping(address => uint256) private tkgBalances;\n    mapping(address => Blogger ) private bloggers;\n    // the cost to write a blog is 0.005 ETH\n    uint256 private costForWriteBlog = 5000000000000000;\n    // the cost to write a blog is 0.001 ETH\n    uint256 private costForLikeOrDislike = 1000000000000000;\n    uint private totalNumberOfLikes;\n    address register;\n\n\n    constructor(address _addr) public {\n       register = _addr;\n    }\n\n    modifier userHasLikes(address user) {\n        require(bloggers[user].currentAvailableLikes > 0);\n\t\t_;\n\t}\n\n    modifier whenRegistered(address user) {\n        require(Register(register).isRegistered(user));\n        _;\n    }\n\n    modifier hasBlog(address user, string blogHash){\n        require((bloggers[user].blogToIndex)[blogHash] != 0);\n        _;\n    }\n\n    //TODO: This is playing function, needs to be deleted \n    function isRegistered(address addr) public view returns (bool){\n         return Register(register).isRegistered(addr);\n    }\n\n    function getRegisterAddress(address addr) public view returns (address){\n        return register;\n    }\n\n\n    // add a blog\n    function addBlog(string blogHash) payable external whenRegistered(msg.sender) returns (bool){\n        require(msg.value > costForWriteBlog);\n        if(bloggers[msg.sender].addr != (0)){\n            uint count = 1;\n            // mapping(string => uint) blogToIndex;\n            // mapping(uint => string) blogList;\n            // mapping(string => uint) likes;\n            // mapping(string => uint) dislikes;\n            // blogToIndex[blogHash] = count;\n            // blogList[count] = blogHash;\n            bloggers[msg.sender] = Blogger(msg.sender, count, 0 ); \n        }else{\n            bloggers[msg.sender].blogCount = bloggers[msg.sender].blogCount + 1;\n            (bloggers[msg.sender].blogToIndex)[blogHash] =  bloggers[msg.sender].blogCount;\n            (bloggers[msg.sender].blogList)[ bloggers[msg.sender].blogCount] = blogHash;\n        }\n        tkgBalances[msg.sender] = tkgBalances[msg.sender].add(5);\n        emit AddedBlog(msg.sender, blogHash);\n        return true;\n    }\n    // delete a blog\n    function deleteBlog(string blogHash) external hasBlog(msg.sender, blogHash) returns (bool){\n        mapping(string => uint) blogidx = bloggers[msg.sender].blogToIndex;\n        mapping(uint => string) blogList = bloggers[msg.sender].blogList;\n\n\t\tif (bloggers[msg.sender].blogCount == 1) {\t\t\n\t\t\tdelete bloggers[msg.sender].blogList[bloggers[msg.sender].blogToIndex[blogHash]];\n\t\t\tdelete bloggers[msg.sender].blogToIndex[blogHash];\n\t\t} else {\n\t\t\tbloggers[msg.sender].blogList[bloggers[msg.sender].blogToIndex[blogHash]] = bloggers[msg.sender].blogList[bloggers[msg.sender].blogCount];\n\t\t\tbloggers[msg.sender].blogToIndex[bloggers[msg.sender].blogList[bloggers[msg.sender].blogCount]] = bloggers[msg.sender].blogToIndex[blogHash];\n\t\t\tdelete bloggers[msg.sender].blogToIndex[bloggers[msg.sender].blogList[bloggers[msg.sender].blogCount]];\t\n\t\t\tdelete bloggers[msg.sender].blogList[bloggers[msg.sender].blogCount];\n        }\n        bloggers[msg.sender].blogCount = bloggers[msg.sender].blogCount -1;\n        emit DeletedBlog(msg.sender, blogHash);\n        return true;\n    }\n\n    // like a blog\n    function likeBlog(address blogOwner, string blogHash) payable external hasBlog(blogOwner, blogHash) returns (bool){\n        require(msg.value > costForLikeOrDislike);\n        bloggers[msg.sender].likes[blogHash] =  bloggers[msg.sender].likes[blogHash] + 1;\n        tkgBalances[msg.sender] = tkgBalances[msg.sender].add(1);\n        return true;\n\n    }\n    // dislike a blog\n    function dislikeBlog(address blogOwner, string blogHash) external returns (bool){\n        require(msg.value > costForLikeOrDislike);\n        bloggers[msg.sender].dislikes[blogHash] =  bloggers[msg.sender].dislikes[blogHash] + 1;\n        tkgBalances[msg.sender] = tkgBalances[msg.sender].add(1);\n        return true;\n    }\n\n    // withdraw the balance for a blogger\n    function withdrawETH() external userHasLikes(msg.sender) returns (bool){\n        msg.sender.transfer(address(this).balance.mul(bloggers[msg.sender].currentAvailableLikes).div(totalNumberOfLikes));\n        totalNumberOfLikes = totalNumberOfLikes - bloggers[msg.sender].currentAvailableLikes;\n        bloggers[msg.sender].currentAvailableLikes = 0;\n        return true;\n    }\n\n    function getBalanceOfTKG() external view returns (uint256){\n        return tkgBalances[msg.sender];\n    } \n    // get the availabe balance for a blogger\n    function getAvailableETHForWithdraw() external view returns (uint256){\n        return address(this).balance.mul(bloggers[msg.sender].currentAvailableLikes).div(totalNumberOfLikes);\n    }\n\n    //deposit ETH to this contract\n    function deposit() payable public {\n        // nothing to do, this will add the balance to the smart contract\n    }\n    // get balance of ETH in this contract\n    function getBalance() public view returns (uint256) {\n        return address(this).balance;\n    }\n\n    // get the blogger \n    function getBlogs(address _addr) external view returns (uint){\n        Blogger blogger = bloggers[_addr];\n        return blogger.blogCount;        \n    }\n    //fallback function\n    function () public payable { revert(); }\n\n    event AddedBlog(address addr, string blogHash);\n    event DeletedBlog(address addr, string blogHash);\n    event LikedBlog(address reader, address blogger, string blogHash);\n    event DislikedBlog(address reader, address blogger, string blogHash);\n} \n",
  "sourcePath": "/home/liang/Liang_Learn/smart_contract/truffle_dev/playground/contracts/Dlogs.sol",
  "compiler": {
    "name": "solc",
    "version": "0.4.24+commit.e67f0147.Emscripten.clang"
  },
  "schemaVersion": "2.0.1",
  "updatedAt": "2018-12-14T00:55:29.177Z"
}