{
  "contractName": "Register",
  "abi": [
    {
      "constant": true,
      "inputs": [],
      "name": "userCount",
      "outputs": [
        {
          "name": "",
          "type": "uint256"
        }
      ],
      "payable": false,
      "stateMutability": "view",
      "type": "function"
    },
    {
      "anonymous": false,
      "inputs": [
        {
          "indexed": true,
          "name": "id",
          "type": "uint256"
        },
        {
          "indexed": false,
          "name": "addr",
          "type": "address"
        },
        {
          "indexed": false,
          "name": "ipns",
          "type": "string"
        }
      ],
      "name": "Registered",
      "type": "event"
    },
    {
      "anonymous": false,
      "inputs": [
        {
          "indexed": true,
          "name": "id",
          "type": "uint256"
        },
        {
          "indexed": false,
          "name": "addr",
          "type": "address"
        },
        {
          "indexed": false,
          "name": "ipns",
          "type": "string"
        }
      ],
      "name": "Unregistered",
      "type": "event"
    },
    {
      "constant": false,
      "inputs": [
        {
          "name": "ipns",
          "type": "string"
        }
      ],
      "name": "register",
      "outputs": [
        {
          "name": "",
          "type": "bool"
        }
      ],
      "payable": false,
      "stateMutability": "nonpayable",
      "type": "function"
    },
    {
      "constant": false,
      "inputs": [],
      "name": "unregister",
      "outputs": [
        {
          "name": "",
          "type": "bool"
        }
      ],
      "payable": false,
      "stateMutability": "nonpayable",
      "type": "function"
    },
    {
      "constant": true,
      "inputs": [
        {
          "name": "addr",
          "type": "address"
        }
      ],
      "name": "isRegistered",
      "outputs": [
        {
          "name": "",
          "type": "bool"
        }
      ],
      "payable": false,
      "stateMutability": "view",
      "type": "function"
    },
    {
      "constant": true,
      "inputs": [
        {
          "name": "id",
          "type": "uint256"
        }
      ],
      "name": "getUser",
      "outputs": [
        {
          "name": "addr",
          "type": "address"
        },
        {
          "name": "ipns",
          "type": "string"
        }
      ],
      "payable": false,
      "stateMutability": "view",
      "type": "function"
    },
    {
      "constant": true,
      "inputs": [
        {
          "name": "_addr",
          "type": "address"
        }
      ],
      "name": "getUserByAddress",
      "outputs": [
        {
          "name": "",
          "type": "address"
        },
        {
          "name": "",
          "type": "string"
        }
      ],
      "payable": false,
      "stateMutability": "view",
      "type": "function"
    }
  ],
  "bytecode": "0x6080604052600060025534801561001557600080fd5b50610acf806100256000396000f300608060405260043610610078576000357c0100000000000000000000000000000000000000000000000000000000900463ffffffff16806307973ccf1461007d57806369c212f6146100a8578063b0467deb14610197578063c3c5a54714610270578063e79a198f146102cb578063f2c298be146102fa575b600080fd5b34801561008957600080fd5b5061009261034d565b6040518082815260200191505060405180910390f35b3480156100b457600080fd5b506100e9600480360381019080803573ffffffffffffffffffffffffffffffffffffffff169060200190929190505050610353565b604051808373ffffffffffffffffffffffffffffffffffffffff1673ffffffffffffffffffffffffffffffffffffffff16815260200180602001828103825283818151815260200191508051906020019080838360005b8381101561015b578082015181840152602081019050610140565b50505050905090810190601f1680156101885780820380516001836020036101000a031916815260200191505b50935050505060405180910390f35b3480156101a357600080fd5b506101c260048036038101908080359060200190929190505050610400565b604051808373ffffffffffffffffffffffffffffffffffffffff1673ffffffffffffffffffffffffffffffffffffffff16815260200180602001828103825283818151815260200191508051906020019080838360005b83811015610234578082015181840152602081019050610219565b50505050905090810190601f1680156102615780820380516001836020036101000a031916815260200191505b50935050505060405180910390f35b34801561027c57600080fd5b506102b1600480360381019080803573ffffffffffffffffffffffffffffffffffffffff16906020019092919050505061052d565b604051808215151515815260200191505060405180910390f35b3480156102d757600080fd5b506102e0610578565b604051808215151515815260200191505060405180910390f35b34801561030657600080fd5b506103336004803603810190808035906020019082018035906020019190919293919293905050506107aa565b604051808215151515815260200191505060405180910390f35b60025481565b6000606060008360008060008373ffffffffffffffffffffffffffffffffffffffff1673ffffffffffffffffffffffffffffffffffffffff16815260200190815260200160002054141515156103a857600080fd5b60016000808773ffffffffffffffffffffffffffffffffffffffff1673ffffffffffffffffffffffffffffffffffffffff168152602001908152602001600020540391506103f582610400565b935093505050915091565b6000606060008360018181548110151561041657fe5b906000526020600020906003020160020160009054906101000a900460ff1615151561044157600080fd5b60018581548110151561045057fe5b906000526020600020906003020191508160000160009054906101000a900473ffffffffffffffffffffffffffffffffffffffff169350816001018054600181600116156101000203166002900480601f01602080910402602001604051908101604052809291908181526020018280546001816001161561010002031660029004801561051f5780601f106104f45761010080835404028352916020019161051f565b820191906000526020600020905b81548152906001019060200180831161050257829003601f168201915b505050505092505050915091565b6000806000808473ffffffffffffffffffffffffffffffffffffffff1673ffffffffffffffffffffffffffffffffffffffff1681526020019081526020016000205414159050919050565b6000803360008060008373ffffffffffffffffffffffffffffffffffffffff1673ffffffffffffffffffffffffffffffffffffffff16815260200190815260200160002054141515156105ca57600080fd5b60016000803373ffffffffffffffffffffffffffffffffffffffff1673ffffffffffffffffffffffffffffffffffffffff16815260200190815260200160002054039150817f9c957e6461122df17c008f0f256224a0d189d1b17c001b9dba50e4e7375dc4e03360018581548110151561064057fe5b9060005260206000209060030201600101604051808373ffffffffffffffffffffffffffffffffffffffff1673ffffffffffffffffffffffffffffffffffffffff1681526020018060200182810382528381815460018160011615610100020316600290048152602001915080546001816001161561010002031660029004801561070c5780601f106106e15761010080835404028352916020019161070c565b820191906000526020600020905b8154815290600101906020018083116106ef57829003601f168201915b5050935050505060405180910390a26000803373ffffffffffffffffffffffffffffffffffffffff1673ffffffffffffffffffffffffffffffffffffffff168152602001908152602001600020600090556001808381548110151561076d57fe5b906000526020600020906003020160020160006101000a81548160ff02191690831515021790555060016002540360028190555060019250505090565b6000806000803373ffffffffffffffffffffffffffffffffffffffff1673ffffffffffffffffffffffffffffffffffffffff168152602001908152602001600020541415156107f857600080fd5b60016060604051908101604052803373ffffffffffffffffffffffffffffffffffffffff16815260200185858080601f0160208091040260200160405190810160405280939291908181526020018383808284378201915050505050508152602001600015158152509080600181540180825580915050906001820390600052602060002090600302016000909192909190915060008201518160000160006101000a81548173ffffffffffffffffffffffffffffffffffffffff021916908373ffffffffffffffffffffffffffffffffffffffff16021790555060208201518160010190805190602001906108ef9291906109fe565b5060408201518160020160006101000a81548160ff0219169083151502179055505050506001805490506000803373ffffffffffffffffffffffffffffffffffffffff1673ffffffffffffffffffffffffffffffffffffffff1681526020019081526020016000208190555060018080549050037fc118700a4fa70d79a8f1df06b1d2ff9aeaf09bdc4c528a45ddd5182856864594338585604051808473ffffffffffffffffffffffffffffffffffffffff1673ffffffffffffffffffffffffffffffffffffffff168152602001806020018281038252848482818152602001925080828437820191505094505050505060405180910390a26001600254016002819055506001905092915050565b828054600181600116156101000203166002900490600052602060002090601f016020900481019282601f10610a3f57805160ff1916838001178555610a6d565b82800160010185558215610a6d579182015b82811115610a6c578251825591602001919060010190610a51565b5b509050610a7a9190610a7e565b5090565b610aa091905b80821115610a9c576000816000905550600101610a84565b5090565b905600a165627a7a72305820c5810586d8e73e6dbd2535e3fe91fd9a8f2545a66d29f5ecae0b9b3cda400a2f0029",
  "source": "pragma solidity ^0.4.24;\n\n// @title Registration for Dlogs\n\ncontract Register{\n    struct User {\n        address addr;\n        string ipns;\n        bool deleted;\n    }\n\n\n    mapping(address => uint) mapFromAddress;\n    User[] users;\n    uint public userCount = 0;\n\n\n    modifier whenUser(uint _id) {\n\t\trequire(!users[_id].deleted);\n\t\t_;\n\t}\n\n    modifier whenRegistered(address addr) {\n\t\trequire(mapFromAddress[addr]!= 0);\n\t\t_;\n\t}\n\n\n    function register(string ipns) external returns (bool){\n        require(mapFromAddress[msg.sender] == 0);\n\n        users.push(User(msg.sender, ipns, false));\n        mapFromAddress[msg.sender] = users.length;\n\n        emit Registered(users.length -1, msg.sender, ipns);\n        userCount = userCount + 1;\n        return true;\n    }\n\n    function unregister() external whenRegistered(msg.sender) returns (bool){\n        uint index = mapFromAddress[msg.sender] - 1;\n        emit Unregistered(index, msg.sender, users[index].ipns );\n\t\tdelete mapFromAddress[msg.sender];\n\t\tusers[index].deleted = true;\n\t\tuserCount = userCount - 1;\n        return true;\n    }\n\n    function isRegistered(address addr) public view returns (bool){\n        return mapFromAddress[addr]!= 0;\n    }\n\n    function getUser(uint id) public view whenUser(id) returns (address addr, string ipns){\n        User storage user = users[id];\n        addr = user.addr;\n        ipns = user.ipns;\n    }\n\n    function getUserByAddress(address _addr) external view whenRegistered(_addr) returns (address, string){\n        uint id = mapFromAddress[_addr] -1;\n        return getUser(id);\n    }\n\n    event Registered(uint indexed id, address addr, string ipns);\n\tevent Unregistered(uint indexed id, address addr, string ipns);\n}",
  "sourcePath": "/home/liang/Liang_Learn/smart_contract/truffle_dev/playground/contracts/Register.sol",
  "compiler": {
    "name": "solc",
    "version": "0.4.24+commit.e67f0147.Emscripten.clang"
  },
  "schemaVersion": "2.0.1",
  "updatedAt": "2018-12-14T00:54:42.479Z"
}